{
  "contractName": "IvtMultiSigWallet",
  "abi": [
    {
      "inputs": [
        {
          "name": "_signers",
          "type": "address[]"
        },
        {
          "name": "_required",
          "type": "uint8"
        }
      ],
      "payable": false,
      "stateMutability": "nonpayable",
      "type": "constructor"
    },
    {
      "payable": true,
      "stateMutability": "payable",
      "type": "fallback"
    },
    {
      "anonymous": false,
      "inputs": [
        {
          "indexed": false,
          "name": "_sender",
          "type": "address"
        },
        {
          "indexed": false,
          "name": "_value",
          "type": "uint256"
        }
      ],
      "name": "Deposit",
      "type": "event"
    },
    {
      "anonymous": false,
      "inputs": [
        {
          "indexed": false,
          "name": "_to",
          "type": "address"
        },
        {
          "indexed": false,
          "name": "_tokenContractAddress",
          "type": "address"
        },
        {
          "indexed": false,
          "name": "_value",
          "type": "uint256"
        }
      ],
      "name": "Transacted",
      "type": "event"
    },
    {
      "constant": false,
      "inputs": [
        {
          "name": "_destination",
          "type": "address"
        },
        {
          "name": "_value",
          "type": "string"
        },
        {
          "name": "_strTransactionData",
          "type": "string"
        },
        {
          "name": "_v",
          "type": "uint8[]"
        },
        {
          "name": "_r",
          "type": "bytes32[]"
        },
        {
          "name": "_s",
          "type": "bytes32[]"
        }
      ],
      "name": "submitTransaction",
      "outputs": [],
      "payable": false,
      "stateMutability": "nonpayable",
      "type": "function"
    },
    {
      "constant": false,
      "inputs": [
        {
          "name": "_destination",
          "type": "address"
        },
        {
          "name": "_tokenContractAddress",
          "type": "address"
        },
        {
          "name": "_value",
          "type": "string"
        },
        {
          "name": "_strTransactionData",
          "type": "string"
        },
        {
          "name": "_v",
          "type": "uint8[]"
        },
        {
          "name": "_r",
          "type": "bytes32[]"
        },
        {
          "name": "_s",
          "type": "bytes32[]"
        }
      ],
      "name": "submitTransactionToken",
      "outputs": [],
      "payable": false,
      "stateMutability": "nonpayable",
      "type": "function"
    }
  ],
  "bytecode": "0x60806040523480156200001157600080fd5b506040516200227c3803806200227c8339810180604052810190808051820192919060200180519060200190929190505050600082518260ff16111580156200005d575060008260ff16115b80156200006b575060008351115b15156200007757600080fd5b600090505b82518160ff1610156200016157600073ffffffffffffffffffffffffffffffffffffffff16838260ff16815181101515620000b357fe5b9060200190602002015173ffffffffffffffffffffffffffffffffffffffff1614151515620000e157600080fd5b6001600080858460ff16815181101515620000f857fe5b9060200190602002015173ffffffffffffffffffffffffffffffffffffffff1673ffffffffffffffffffffffffffffffffffffffff16815260200190815260200160002060006101000a81548160ff02191690831515021790555080806001019150506200007c565b81600360146101000a81548160ff021916908360ff16021790555033600360006101000a81548173ffffffffffffffffffffffffffffffffffffffff021916908373ffffffffffffffffffffffffffffffffffffffff1602179055505050506120ac80620001d06000396000f30060806040526004361061004c576000357c0100000000000000000000000000000000000000000000000000000000900463ffffffff16806396fef3f1146100c3578063fc09ff9e1461027b575b60003411156100c1577fe1fffcc4923d04b559f4d29a8bfc6cda04eb5b0d3c460751c2402c5c5cc9109c3334604051808373ffffffffffffffffffffffffffffffffffffffff1673ffffffffffffffffffffffffffffffffffffffff1681526020018281526020019250505060405180910390a15b005b3480156100cf57600080fd5b50610279600480360381019080803573ffffffffffffffffffffffffffffffffffffffff169060200190929190803573ffffffffffffffffffffffffffffffffffffffff169060200190929190803590602001908201803590602001908080601f0160208091040260200160405190810160405280939291908181526020018383808284378201915050505050509192919290803590602001908201803590602001908080601f0160208091040260200160405190810160405280939291908181526020018383808284378201915050505050509192919290803590602001908201803590602001908080602002602001604051908101604052809392919081815260200183836020028082843782019150505050505091929192908035906020019082018035906020019080806020026020016040519081016040528093929190818152602001838360200280828437820191505050505050919291929080359060200190820180359060200190808060200260200160405190810160405280939291908181526020018383602002808284378201915050505050509192919290505050610413565b005b34801561028757600080fd5b50610411600480360381019080803573ffffffffffffffffffffffffffffffffffffffff169060200190929190803590602001908201803590602001908080601f0160208091040260200160405190810160405280939291908181526020018383808284378201915050505050509192919290803590602001908201803590602001908080601f016020809104026020016040519081016040528093929190818152602001838380828437820191505050505050919291929080359060200190820180359060200190808060200260200160405190810160405280939291908181526020018383602002808284378201915050505050509192919290803590602001908201803590602001908080602002602001604051908101604052809392919081815260200183836020028082843782019150505050505091929192908035906020019082018035906020019080806020026020016040519081016040528093929190818152602001838360200280828437820191505050505050919291929050505061063c565b005b60008060003373ffffffffffffffffffffffffffffffffffffffff16600360009054906101000a900473ffffffffffffffffffffffffffffffffffffffff1673ffffffffffffffffffffffffffffffffffffffff1614151561047457600080fd5b6104818a888888886107a7565b61048a88610904565b92506104978a8989610ce9565b91506104a582878787610ff3565b8890508073ffffffffffffffffffffffffffffffffffffffff1663a9059cbb8b856040518363ffffffff167c0100000000000000000000000000000000000000000000000000000000028152600401808373ffffffffffffffffffffffffffffffffffffffff1673ffffffffffffffffffffffffffffffffffffffff16815260200182815260200192505050602060405180830381600087803b15801561054b57600080fd5b505af115801561055f573d6000803e3d6000fd5b505050506040513d602081101561057557600080fd5b8101908080519060200190929190505050151561059157600080fd5b7f13d158990ef9ffe9e1dd9aebb7d0500ff5ca2ee1b5ce46f5f668877376374cd28a8a85604051808473ffffffffffffffffffffffffffffffffffffffff1673ffffffffffffffffffffffffffffffffffffffff1681526020018373ffffffffffffffffffffffffffffffffffffffff1673ffffffffffffffffffffffffffffffffffffffff168152602001828152602001935050505060405180910390a150505050505050505050565b6000803373ffffffffffffffffffffffffffffffffffffffff16600360009054906101000a900473ffffffffffffffffffffffffffffffffffffffff1673ffffffffffffffffffffffffffffffffffffffff1614151561069b57600080fd5b6106a888878787876107a7565b6106b187610904565b91506106be888888610ce9565b90506106cc81868686610ff3565b8773ffffffffffffffffffffffffffffffffffffffff166108fc839081150290604051600060405180830381858888f19350505050158015610712573d6000803e3d6000fd5b507f13d158990ef9ffe9e1dd9aebb7d0500ff5ca2ee1b5ce46f5f668877376374cd288600084604051808473ffffffffffffffffffffffffffffffffffffffff1673ffffffffffffffffffffffffffffffffffffffff1681526020018373ffffffffffffffffffffffffffffffffffffffff168152602001828152602001935050505060405180910390a15050505050505050565b6060600060606000808973ffffffffffffffffffffffffffffffffffffffff161415801561080157503073ffffffffffffffffffffffffffffffffffffffff168973ffffffffffffffffffffffffffffffffffffffff1614155b801561080e575085518751145b801561081b575084518751145b8015610828575060008751115b151561083357600080fd5b6108408860286030611332565b935061084b84610904565b92506001600084815260200190815260200160002060009054906101000a900460ff1615151561087a57600080fd5b6108878860006028611332565b915061089282611443565b90503073ffffffffffffffffffffffffffffffffffffffff168173ffffffffffffffffffffffffffffffffffffffff161415156108ce57600080fd5b600180600085815260200190815260200160002060006101000a81548160ff021916908315150217905550505050505050505050565b6000606060008084925060009150600090505b8251811015610cde5760307f010000000000000000000000000000000000000000000000000000000000000002838281518110151561095257fe5b9060200101517f010000000000000000000000000000000000000000000000000000000000000090047f0100000000000000000000000000000000000000000000000000000000000000027effffffffffffffffffffffffffffffffffffffffffffffffffffffffffffff191610158015610a6a575060397f01000000000000000000000000000000000000000000000000000000000000000283828151811015156109fa57fe5b9060200101517f010000000000000000000000000000000000000000000000000000000000000090047f0100000000000000000000000000000000000000000000000000000000000000027effffffffffffffffffffffffffffffffffffffffffffffffffffffffffffff191611155b15610afa5760308382815181101515610a7f57fe5b9060200101517f010000000000000000000000000000000000000000000000000000000000000090047f0100000000000000000000000000000000000000000000000000000000000000027f010000000000000000000000000000000000000000000000000000000000000090040360108302019150610cd1565b60617f0100000000000000000000000000000000000000000000000000000000000000028382815181101515610b2c57fe5b9060200101517f010000000000000000000000000000000000000000000000000000000000000090047f0100000000000000000000000000000000000000000000000000000000000000027effffffffffffffffffffffffffffffffffffffffffffffffffffffffffffff191610158015610c445750607a7f0100000000000000000000000000000000000000000000000000000000000000028382815181101515610bd457fe5b9060200101517f010000000000000000000000000000000000000000000000000000000000000090047f0100000000000000000000000000000000000000000000000000000000000000027effffffffffffffffffffffffffffffffffffffffffffffffffffffffffffff191611155b15610cd05760578382815181101515610c5957fe5b9060200101517f010000000000000000000000000000000000000000000000000000000000000090047f0100000000000000000000000000000000000000000000000000000000000000027f0100000000000000000000000000000000000000000000000000000000000000900403601083020191505b5b8080600101915050610917565b819350505050919050565b6000606080600060606009604051908082528060200260200182016040528015610d2757816020015b6060815260200190600190039081610d125790505b5093506009604051908082528060200260200182016040528015610d5f57816020015b6060815260200190600190039081610d4a5790505b5092506040805190810160405280600181526020017f0900000000000000000000000000000000000000000000000000000000000000815250846000815181101515610da757fe5b906020019060200201819052506040805190810160405280600581526020017f09502f9000000000000000000000000000000000000000000000000000000000815250846001815181101515610df957fe5b906020019060200201819052506040805190810160405280600281526020017f5208000000000000000000000000000000000000000000000000000000000000815250846002815181101515610e4b57fe5b90602001906020020181905250610e61886116ff565b846003815181101515610e7057fe5b90602001906020020181905250610e8687611731565b846004815181101515610e9557fe5b90602001906020020181905250610eab86611731565b846005815181101515610eba57fe5b906020019060200201819052506040805190810160405280600181526020017f0300000000000000000000000000000000000000000000000000000000000000815250846006815181101515610f0c57fe5b90602001906020020181905250600091505b60098260ff161015610f7857610f4d848360ff16815181101515610f3e57fe5b906020019060200201516119b1565b838360ff16815181101515610f5e57fe5b906020019060200201819052508180600101925050610f1e565b610f8183611a9e565b9050806040518082805190602001908083835b602083101515610fb95780518252602082019150602081019050602083039250610f94565b6001836020036101000a03801982511681845116808217855250505050505090500191505060405180910390209450505050509392505050565b600060606000806000809450875160405190808252806020026020018201604052801561102f5781602001602082028038833980820191505090505b509350600091505b87518260ff16101561127c57600189898460ff1681518110151561105757fe5b90602001906020020151898560ff1681518110151561107257fe5b90602001906020020151898660ff1681518110151561108d57fe5b90602001906020020151604051600081526020016040526040518085600019166000191681526020018460ff1660ff1681526020018360001916600019168152602001826000191660001916815260200194505050505060206040516020810390808403906000865af1158015611108573d6000803e3d6000fd5b50505060206040510351925082848360ff1681518110151561112657fe5b9060200190602002019073ffffffffffffffffffffffffffffffffffffffff16908173ffffffffffffffffffffffffffffffffffffffff16815250506000808473ffffffffffffffffffffffffffffffffffffffff1673ffffffffffffffffffffffffffffffffffffffff16815260200190815260200160002060009054906101000a900460ff1680156112045750600260008473ffffffffffffffffffffffffffffffffffffffff1673ffffffffffffffffffffffffffffffffffffffff16815260200190815260200160002060009054906101000a900460ff16155b151561120f57600080fd5b6001600260008573ffffffffffffffffffffffffffffffffffffffff1673ffffffffffffffffffffffffffffffffffffffff16815260200190815260200160002060006101000a81548160ff02191690831515021790555084806001019550508180600101925050611037565b600090505b87518160ff1610156113035760026000858360ff168151811015156112a257fe5b9060200190602002015173ffffffffffffffffffffffffffffffffffffffff1673ffffffffffffffffffffffffffffffffffffffff16815260200190815260200160002060006101000a81549060ff02191690558080600101915050611281565b600360149054906101000a900460ff1660ff168560ff161015151561132757600080fd5b505050505050505050565b606080606060008692506030835114151561134c57600080fd5b8585036040519080825280601f01601f1916602001820160405280156113815781602001602082028038833980820191505090505b5091508590505b8481101561143657828181518110151561139e57fe5b9060200101517f010000000000000000000000000000000000000000000000000000000000000090047f010000000000000000000000000000000000000000000000000000000000000002828783038151811015156113f957fe5b9060200101907effffffffffffffffffffffffffffffffffffffffffffffffffffffffffffff1916908160001a9053508080600101915050611388565b8193505050509392505050565b600060608060008060008061148d6040805190810160405280600281526020017f307800000000000000000000000000000000000000000000000000000000000081525089611ac7565b955085945060009350600290505b602a8110156116f1576101008402935084818151811015156114b957fe5b9060200101517f010000000000000000000000000000000000000000000000000000000000000090047f0100000000000000000000000000000000000000000000000000000000000000027f010000000000000000000000000000000000000000000000000000000000000090049250846001820181518110151561153a57fe5b9060200101517f010000000000000000000000000000000000000000000000000000000000000090047f0100000000000000000000000000000000000000000000000000000000000000027f01000000000000000000000000000000000000000000000000000000000000009004915060618373ffffffffffffffffffffffffffffffffffffffff16101580156115e8575060668373ffffffffffffffffffffffffffffffffffffffff1611155b156115f857605783039250611643565b60308373ffffffffffffffffffffffffffffffffffffffff1610158015611636575060398373ffffffffffffffffffffffffffffffffffffffff1611155b15611642576030830392505b5b60618273ffffffffffffffffffffffffffffffffffffffff1610158015611681575060668273ffffffffffffffffffffffffffffffffffffffff1611155b15611691576057820391506116dc565b60308273ffffffffffffffffffffffffffffffffffffffff16101580156116cf575060398273ffffffffffffffffffffffffffffffffffffffff1611155b156116db576030820391505b5b8160108402018401935060028101905061149b565b839650505050505050919050565b606060405182741400000000000000000000000000000000000000001860148201526034810160405280915050919050565b60606000806000606080600080606060006030985060419750606196508a955085516040519080825280602002602001820160405280156117815781602001602082028038833980820191505090505b509450600093505b85518410156118a15785848151811015156117a057fe5b9060200101517f010000000000000000000000000000000000000000000000000000000000000090047f0100000000000000000000000000000000000000000000000000000000000000027f010000000000000000000000000000000000000000000000000000000000000090049250606083111561184157600a6061840301858581518110151561182e57fe5b9060200190602002018181525050611894565b604283111561187257600a6041840301858581518110151561185f57fe5b9060200190602002018181525050611893565b60308303858581518110151561188457fe5b90602001906020020181815250505b5b8380600101945050611789565b600285518115156118ae57fe5b046040519080825280601f01601f1916602001820160405280156118e15781602001602082028038833980820191505090505b509150600090505b84518110156119a057846001820181518110151561190357fe5b906020019060200201516010868381518110151561191d57fe5b9060200190602002015102017f0100000000000000000000000000000000000000000000000000000000000000028260028381151561195857fe5b0481518110151561196557fe5b9060200101907effffffffffffffffffffffffffffffffffffffffffffffffffffffffffffff1916908160001a9053506002810190506118e9565b819950505050505050505050919050565b60608060018351148015611a41575060808360008151811015156119d157fe5b9060200101517f010000000000000000000000000000000000000000000000000000000000000090047f0100000000000000000000000000000000000000000000000000000000000000027f01000000000000000000000000000000000000000000000000000000000000009004105b15611a855760016040519080825280601f01601f191660200182016040528015611a7a5781602001602082028038833980820191505090505b509050829050611a95565b611a9283608060b7611c98565b90505b80915050919050565b6060806060611aac84611efc565b9150611abb8260c060f7611c98565b90508092505050919050565b606080606080606060008088955087945084518651016040519080825280601f01601f191660200182016040528015611b0f5781602001602082028038833980820191505090505b50935083925060009150600090505b8551811015611bd1578581815181101515611b3557fe5b9060200101517f010000000000000000000000000000000000000000000000000000000000000090047f0100000000000000000000000000000000000000000000000000000000000000028383806001019450815181101515611b9457fe5b9060200101907effffffffffffffffffffffffffffffffffffffffffffffffffffffffffffff1916908160001a9053508080600101915050611b1e565b600090505b8451811015611c89578481815181101515611bed57fe5b9060200101517f010000000000000000000000000000000000000000000000000000000000000090047f0100000000000000000000000000000000000000000000000000000000000000028383806001019450815181101515611c4c57fe5b9060200101907effffffffffffffffffffffffffffffffffffffffffffffffffffffffffffff1916908160001a9053508080600101915050611bd6565b82965050505050505092915050565b60606000606060008060008060208a01955089519250600190505b60008184811515611cc057fe5b04141515611cdc57818060010192505061010081029050611cb3565b603783111515611d9c57600183016040519080825280601f01601f191660200182016040528015611d1c5781602001602082028038833980820191505090505b509450828960ff16017f010000000000000000000000000000000000000000000000000000000000000002856000815181101515611d5657fe5b9060200101907effffffffffffffffffffffffffffffffffffffffffffffffffffffffffffff1916908160001a905350602185019350611d97848785612035565b611eec565b8282600101016040519080825280601f01601f191660200182016040528015611dd45781602001602082028038833980820191505090505b509450818860ff16017f010000000000000000000000000000000000000000000000000000000000000002856000815181101515611e0e57fe5b9060200101907effffffffffffffffffffffffffffffffffffffffffffffffffffffffffffff1916908160001a905350600190505b8181111515611ed8576101008183036101000a84811515611e6057fe5b04811515611e6a57fe5b067f0100000000000000000000000000000000000000000000000000000000000000028582815181101515611e9b57fe5b9060200101907effffffffffffffffffffffffffffffffffffffffffffffffffffffffffffff1916908160001a9053508080600101915050611e43565b8160218601019350611eeb848785612035565b5b8496505050505050509392505050565b606060008060606000606060008088511415611f4e5760006040519080825280601f01601f191660200182016040528015611f465781602001602082028038833980820191505090505b50965061202a565b600094505b8751851015611f86578785815181101515611f6a57fe5b9060200190602002015151860195508480600101955050611f53565b856040519080825280601f01601f191660200182016040528015611fb95781602001602082028038833980820191505090505b509350602084019250600094505b8751851015612026578785815181101515611fde57fe5b906020019060200201519150602082019050611ffc83828451612035565b878581518110151561200a57fe5b9060200190602002015151830192508480600101955050611fc7565b8396505b505050505050919050565b60005b60208210151561205d5782518452602084019350602083019250602082039150612038565b6001826020036101000a03905080198351168185511681811786525050505050505600a165627a7a72305820e760676f28b74b5e0353605aa86352af80dddbf273cc5ee91635b05e1191bb200029",
  "source": "pragma solidity ^0.4.21;\r\n\r\nimport \"../library/RLPEncode.sol\";\r\n//https://github.com/sammayo/solidity-rlp-encoder\r\n\r\nimport \"./TypeConv.sol\";\r\n\r\ncontract IvtMultiSigWallet {\r\n    \r\n    event Deposit(address _sender, uint256 _value);\r\n    event Transacted(address _to, address _tokenContractAddress, uint256 _value);\r\n\r\n    mapping (address => bool) private signers;\r\n    mapping (uint256 => bool) private transactions;\r\n    mapping (address => bool) private signedAddresses;\r\n\r\n    address private owner;\r\n    uint8 private required;\r\n\r\n    modifier onlyOwner {\r\n        require(owner == msg.sender);\r\n        _;\r\n    }\r\n\r\n    constructor(address[] _signers, uint8 _required) public{\r\n        require(_required <= _signers.length && _required > 0 && _signers.length > 0);\r\n\r\n        for (uint8 i = 0; i < _signers.length; i++){\r\n            require(_signers[i] != address(0));\r\n            signers[_signers[i]] = true;\r\n        }\r\n        required = _required;\r\n        owner = msg.sender;\r\n    }\r\n\r\n    function() payable public{\r\n        if (msg.value > 0)\r\n            emit Deposit(msg.sender, msg.value);\r\n    }\r\n\r\n    function submitTransaction(address _destination, string _value, string _strTransactionData, uint8[] _v, bytes32[] _r, bytes32[] _s) onlyOwner public{\r\n        processAndCheckParam(_destination, _strTransactionData, _v, _r, _s);\r\n\r\n        uint256 transactionValue = TypeConv.stringToUint(_value);\r\n        bytes32 _msgHash = getMsgHash(_destination, _value, _strTransactionData);\r\n        verifySignatures(_msgHash, _v, _r, _s);\r\n\r\n        _destination.transfer(transactionValue);\r\n\r\n        emit Transacted(_destination, 0, transactionValue);\r\n    }\r\n\r\n    function submitTransactionToken(address _destination, address _tokenContractAddress, string _value, string _strTransactionData, uint8[] _v, bytes32[] _r,bytes32[] _s) onlyOwner public{\r\n        processAndCheckParam(_destination, _strTransactionData, _v, _r, _s);\r\n\r\n        uint256 transactionValue = TypeConv.stringToUint(_value);\r\n        bytes32 _msgHash = getMsgHash(_destination, _value, _strTransactionData);\r\n        verifySignatures(_msgHash, _v, _r, _s);\r\n\r\n        ERC20Interface instance = ERC20Interface(_tokenContractAddress);\r\n        require(instance.transfer(_destination, transactionValue));\r\n\r\n        emit Transacted(_destination, _tokenContractAddress, transactionValue);\r\n    }\r\n\r\n    function getMsgHash(address _destination, string _value, string _strTransactionData) constant internal returns (bytes32){\r\n        bytes[] memory rawTx = new bytes[](9);\r\n        bytes[] memory bytesArray = new bytes[](9);\r\n\r\n        rawTx[0] = hex\"09\";\r\n        rawTx[1] = hex\"09502f9000\";\r\n        rawTx[2] = hex\"5208\";\r\n        rawTx[3] = TypeConv.addressToBytes(_destination);\r\n        rawTx[4] = TypeConv.strToBytes(_value);\r\n        rawTx[5] = TypeConv.strToBytes(_strTransactionData);\r\n        rawTx[6] = hex\"03\"; //03=testnet,01=mainnet\r\n\r\n        for(uint8 i = 0; i < 9; i++){\r\n            bytesArray[i] = RLPEncode.encodeBytes(rawTx[i]);\r\n        }\r\n\r\n        bytes memory bytesList = RLPEncode.encodeList(bytesArray);\r\n\r\n        return keccak256(bytesList);\r\n    }\r\n\r\n    function processAndCheckParam(address _destination, string _strTransactionData, uint8[] _v, bytes32[] _r, bytes32[] _s)  internal{\r\n        require(_destination != 0 && _destination != address(this) && _v.length == _r.length && _v.length == _s.length && _v.length > 0);\r\n\r\n        string memory strTransactionTime = TypeConv.subString(_strTransactionData, 40, 48);\r\n        uint256 transactionTime = TypeConv.stringToUint(strTransactionTime);\r\n        require(!transactions[transactionTime]);\r\n\r\n        string memory strTransactionAddress = TypeConv.subString(_strTransactionData, 0, 40);\r\n        address contractAddress = TypeConv.stringToAddr(strTransactionAddress);\r\n        require(contractAddress == address(this));\r\n\r\n        transactions[transactionTime] = true;\r\n\r\n    }\r\n\r\n    function verifySignatures(bytes32 _msgHash, uint8[] _v, bytes32[] _r,bytes32[] _s) view private{\r\n        uint8 hasConfirmed = 0;\r\n        address[] memory  tempAddresses = new address[](_v.length);\r\n        address tempAddress;\r\n\r\n        for (uint8 i = 0; i < _v.length; i++){\r\n            tempAddress = ecrecover(_msgHash, _v[i], _r[i], _s[i]);\r\n            tempAddresses[i] = tempAddress;\r\n\r\n            require(signers[tempAddress] && (!signedAddresses[tempAddress]));\r\n            signedAddresses[tempAddress] = true;\r\n            hasConfirmed++;\r\n        }\r\n        \r\n        for (uint8 j = 0; j < _v.length; j++){\r\n            delete (signedAddresses[tempAddresses[j]]);\r\n        }\r\n\r\n        require(hasConfirmed >= required);\r\n    }\r\n}\r\n\r\n\r\ncontract ERC20Interface {\r\n    function transfer(address _to, uint256 _value) public returns (bool success);\r\n    function balanceOf(address _owner) public constant returns (uint256 balance);\r\n}\r\n",
  "sourcePath": "/root/truffle/MultiSigWallet/contracts/IvtMultiSigWallet.sol",
  "compiler": {
    "name": "solc",
    "version": "0.4.24+commit.e67f0147.Emscripten.clang"
  },
  "schemaVersion": "2.0.1",
  "updatedAt": "2018-09-18T12:46:50.969Z"
}